{
  "contractName": "HelloWorld",
  "abi": [
    {
      "constant": false,
      "inputs": [
        {
          "name": "valeur",
          "type": "uint256"
        }
      ],
      "name": "set",
      "outputs": [],
      "payable": false,
      "stateMutability": "nonpayable",
      "type": "function"
    },
    {
      "constant": true,
      "inputs": [],
      "name": "get",
      "outputs": [
        {
          "name": "",
          "type": "uint256"
        }
      ],
      "payable": false,
      "stateMutability": "view",
      "type": "function"
    },
    {
      "constant": false,
      "inputs": [
        {
          "name": "valeur",
          "type": "uint256"
        }
      ],
      "name": "setInf",
      "outputs": [
        {
          "name": "",
          "type": "uint256"
        }
      ],
      "payable": false,
      "stateMutability": "nonpayable",
      "type": "function"
    },
    {
      "constant": true,
      "inputs": [],
      "name": "numero",
      "outputs": [
        {
          "name": "",
          "type": "uint256"
        }
      ],
      "payable": false,
      "stateMutability": "view",
      "type": "function"
    }
  ],
  "bytecode": "0x6060604052341561000f57600080fd5b61015b8061001e6000396000f300606060405260043610610062576000357c0100000000000000000000000000000000000000000000000000000000900463ffffffff16806360fe47b1146100675780636d4ce63c1461008a5780637f0fd074146100b357806391f5de38146100d6575b600080fd5b341561007257600080fd5b61008860048080359060200190919050506100ff565b005b341561009557600080fd5b61009d610109565b6040518082815260200191505060405180910390f35b34156100be57600080fd5b6100d46004808035906020019091905050610112565b005b34156100e157600080fd5b6100e9610129565b6040518082815260200191505060405180910390f35b8060008190555050565b60008054905090565b5b6001156101265780600081905550610113565b50565b600054815600a165627a7a723058204cef6718a52dbfe4cb8097ac9ad4b02c8e13e6f04f29325692fb41e161ba9a5a0029",
  "source": "pragma solidity ^0.4.0;\n\ncontract HelloWorld {\n\n    uint public numero;\n\n    function set (uint valeur) public {\n        numero = valeur;\n    }\n\n    function get() public constant returns (uint) {\n        return numero;        \n    }\n\n    function setInf(uint valeur) public {\n        while (true){numero = valeur;}\n    }\n    \n}",
  "sourcePath": "/Users/azanlekor/Desktop/grydlcrypto/projet/smart-contract/contracts/HelloWorld.sol",
  "compiler": {
    "name": "solc",
    "version": "0.4.18+commit.9cf6e910.Emscripten.clang"
  },
  "schemaVersion": "1.0.1",
  "updatedAt": "2017-11-11T18:44:21.980Z"
}